:020000040800F2
:1000000000000824951600088D14000893140008B9
:10001000991400089F140008A514000800000000AF
:1000200000000000000000000000000001AD010819
:10003000AB1400080000000051AF0108D59F010873
:10004000E5160008E5160008E5160008E5160008A4
:10005000E5160008E5160008E5160008E516000894
:10006000E5160008E5160008E5160008E516000884
:10007000E5160008E5160008E5160008E516000874
:10008000E5160008E5160008E5160008E516000864
:10009000E5160008E5160008E5160008E516000854
:1000A000E5160008E5160008E5160008E516000844
:1000B000E5160008E5160008E5160008E516000834
:1000C000E5160008E5160008E5160008E516000824
:1000D000E5160008E5160008E5160008E516000814
:1000E000E5160008E516000800000000E516000807
:1000F000E5160008E5160008E5160008E5160008F4
:10010000E5160008E5160008E5160008E5160008E3
:10011000E5160008E5160008B9140008E516000801
:10012000E5160008E5160008E5160008E5160008C3
:10013000E5160008E5160008E5160008E5160008B3
:10014000E5160008E51600080000000000000000A9
:10015000E5160008E5160008E5160008E516000893
:10016000E5160008E5160008E5160008E516000883
:10017000E5160008E5160008E51600080000000076
:10018000E5160008E5160008E5160008E516000863
:10019000E5160008E5160008E5160008E516000853
:1001A000CD140008E5160008E1140008E516000863
:1001B000F5140008E5160008E5160008E516000825
:1001C000E5160008E5160008E5160008E516000823
:1001D000E5160008E5160008E5160008E516000813
:1001E000E5160008E5160008E5160008E516000803
:1001F000E5160008E5160008E5160008E5160008F3
:10020000E5160008E5160008E5160008E5160008E2
:10021000E5160008E5160008E5160008E5160008D2
:10022000E5160008E5160008E516000800000000C5
:10023000E5160008E5160008E5160008E5160008B2
:10024000E5160008E5160008E5160008E5160008A2
:10025000E5160008E5160008E5160008E516000892
:10026000E5160008E5160008E5160008E516000882
:10027000E5160008E5160008E5160008E516000872
:10028000E5160008E5160008E51600080000000065
:08029000E5160008E516000860
:1002A00010B5054C237833B9044B13B10448AFF3B0
:1002B00000800123237010BD2C01002400000000E9
:1002C00060C1030808B5034B1BB103490348AFF3F2
:1002D000008008BD000000003001002460C1030858
:1002E00001F0FF01102A2BDB10F0070F08D010F8E7
:1002F000013B013A8B422DD010F0070F42B3F6D1EB
:10030000F0B441EA012141EA014122F007047FF003
:1003100000070023F0E80256083C85EA010586EA5A
:10032000010685FA47F5A3FA87F586FA47F6A5FA96
:1003300087F68EB9EED1F0BC01F0FF0102F00702A2
:1003400032B110F8013B013A83EA010313B1F8D14D
:100350000020704701387047002D06BF354603382E
:10036000073815F0010F07D1013015F4807F02BF67
:10037000013015F4C03F0130F0BC0138704700BFB8
:1003800080B586B000AF00F0AFFB644B5B6903F44F
:100390000033002B1BD1BFF34F8F00BFBFF36F8F14
:1003A00000BF5E4B0022C3F85022BFF34F8F00BF47
:1003B000BFF36F8F00BF594B5B69584A43F400335A
:1003C0005361BFF34F8F00BFBFF36F8F00E000BFDB
:1003D000524B5B6903F48033002B38D14F4B002222
:1003E000C3F88420BFF34F8F00BF4C4BD3F880304D
:1003F0003B613B695B0BC3F30E03FB603B69DB08AE
:10040000C3F30903BB60FB685A0143F6E073134072
:10041000BA68920741491343C1F86032BB685A1E5B
:10042000BA60002BEFD1FB685A1EFA60002BE5D1B1
:10043000BFF34F8F00BF394B5B69384A43F48033B9
:100440005361BFF34F8F00BFBFF36F8F00E000BF5A
:100450004FF6FF737B6100BF314B1B6803F4004311
:10046000002B04D07B695A1E7A61002BF4DC7B6977
:10047000002B01DA00F082FB1FF0B8FD00F05EF8FF
:10048000274BD3F8E030264A43F00073C2F8E0303F
:10049000234BD3F8E03003F000737B607B680020CF
:1004A00020F0E6FC0021002020F0FCFC4FF6FF735A
:1004B0007B6100BF1A4B1B6803F40043002B04D17F
:1004C0007B695A1E7A61002BF4DC7B69002B01DA10
:1004D00000F054FB00F008FA00F082F900F0AEF9E9
:1004E00000F0FAF800F0B8F800F0D8F801F0FBF8E6
:1004F00019F08AFD0B4A00210B4819F0CFFD034685
:100500000A4A13600A4A00210A4819F0C7FD034647
:10051000094A136019F09CFDFEE700BF00ED00E002
:100520000044025824D50308D90A0008FC0200241C
:1005300048D50308F31600080003002480B59CB0DA
:1005400000AF07F124034C22002118463AF0E4FDE5
:100550003B1D2022002118463AF0DEFD042022F047
:100560000BF800233B60394BDB6A384A23F0010368
:10057000D362364BDB6A03F001033B60344B9B696B
:10058000334A43F440439361314B9B6903F4404346
:100590003B603B6800BF2E4B9B6903F40053B3F5EF
:1005A000005FF8D12B4B9B6A23F00303294A43F0E9
:1005B0000203936203237B624FF48033BB62012307
:1005C0003B6340237B630223BB640223FB6405235C
:1005D0003B65A0237B650223BB650423FB650223E7
:1005E0003B6608237B660023BB660023FB6607F19E
:1005F0002403184622F0FCFE0346002B01D000F035
:10060000BDFA3F237B600323BB600023FB6008230C
:100610003B6140237B614023BB614FF48063FB61FE
:1006200040233B623B1D0221184623F00FFB03468B
:10063000002B01D000F0A2FA4FF48022002100200C
:1006400023F0BAFC00BF7037BD4680BD00040058DF
:10065000004802580044025880B500AF0D4B0E4AC6
:100660001A600C4B00221A710A4B00225A71094B76
:1006700000225A61074B00229A61064B01221A623E
:1006800004481FF0A9FE0346002B01D000F076FAC3
:1006900000BF80BD48010024004C025880B500AF67
:1006A0000B4B0C4A1A600A4B4FF440325A60084B0D
:1006B00002229A60064B0022DA6005481FF076FF9E
:1006C0000346002B01D000F059FA00BF80BD00BFE7
:1006D0006C0100240010005280B58EB000AF00F015
:1006E00053FA3B1D3422002118463AF015FD3A4BCF
:1006F0003A4A1A60384B00225A60374B00229A60FF
:10070000354B0022DA60344B00221A61324B28222A
:100710005A61314B09229A612F4B3522DA612E4BF7
:100720000B221A622C4B40F215225A622A4B40F2DD
:100730001B129A62284B40F23522DA62264B40F2B5
:100740001D121A63244B002283F83420224B00220E
:1007500083F83520204B002283F836201E4821F0F4
:100760000FFA0346002B01D000F008FA00237B604B
:100770004FF4F073BB600023FB604FF488733B6160
:1007800002237B61FF23BB610023FB614FF4806385
:100790003B6205237B624FF05043BB624FF4F07322
:1007A000FB624FF488733B63002387F834300023E7
:1007B00087F83530002387F836303B1D0022194674
:1007C000054821F065FB0346002B01D000F0D6F967
:1007D00000BF3837BD4680BDD40100240010005052
:1007E00080B500AF124B134A1A60114B01225A60B8
:1007F0000F4B01229A600E4B1022DA600C4B1A222A
:100800001A610B4B4FF400725A61094B00229A6136
:10081000074B40221A62064821F008FF0346002BCE
:1008200001D000F0ABF9044800F022FA00BF80BD0F
:100830007C020024005000527D0B000880B588B077
:1008400000AF3B1D00221A605A609A60DA601A619C
:100850005A619A61214B224A1A60204B01225A6048
:100860001E4B00229A601D4B0422DA601B4B1022A3
:100870001A611A4B40225A61184B4FF480729A61E8
:10088000164B0022DA61154B4FF400621A62134BCB
:100890004FF480525A62114B00229A6202237B600D
:1008A0000623BB600423FB6006233B6102237B61BC
:1008B0000223BB610223FB613B1D1946074824F05C
:1008C000A7FE0346002B01D000F058F9054800F0C0
:1008D000F0F900BF2037BD4680BD00BFC80200242C
:1008E000404100527D0B000880B590B000AF07F189
:1008F0002C0300221A605A609A60DA601A61724B07
:10090000D3F8E030704A43F48063C2F8E0306E4BB5
:10091000D3F8E03003F48063BB62BB6A6A4BD3F860
:10092000E030694A43F04003C2F8E030664BD3F848
:10093000E03003F040037B627B6A634BD3F8E03026
:10094000614A43F48073C2F8E0305F4BD3F8E03083
:1009500003F480733B623B6A5B4BD3F8E0305A4A46
:1009600043F01003C2F8E030574BD3F8E03003F007
:100970001003FB61FB69544BD3F8E030524A43F05B
:100980000203C2F8E030504BD3F8E03003F002032A
:10099000BB61BB694C4BD3F8E0304B4A43F4007366
:1009A000C2F8E030484BD3F8E03003F400737B61C9
:1009B0007B69454BD3F8E030434A43F00803C2F863
:1009C000E030414BD3F8E03003F008033B613B6972
:1009D0003D4BD3F8E0303C4A43F00103C2F8E0302D
:1009E000394BD3F8E03003F00103FB60FB68364B72
:1009F000D3F8E030344A43F02003C2F8E030324B01
:100A0000D3F8E03003F02003BB60BB682E4BD3F873
:100A1000E0302D4A43F08003C2F8E0302A4BD3F88F
:100A2000E03003F080037B607B680022C021274810
:100A300020F0EAF900220821254820F0E5F90022FB
:100A40004021244820F0E0F9C023FB6201233B63EE
:100A500000237B630323BB6307F12C0319461B4868
:100A60001FF018FF4FF48073FB6202233B630023E7
:100A70007B630023BB630023FB6307F12C03194650
:100A800014481FF007FF0823FB6201233B63002388
:100A90007B630323BB6307F12C0319460C481FF04B
:100AA000F9FE4023FB6201233B6300237B630323A6
:100AB000BB6307F12C03194606481FF0EBFE00BF8D
:100AC0004037BD4680BD00BF0044025800040258B4
:100AD000001802580000025880B582B000AF78605C
:100AE000012019F06DFBFBE780B584B000AF3B46F9
:100AF00000221A605A609A60DA601FF0F1FB01234D
:100B00003B7000237B704FF050437B6013233B729C
:100B100000237B720023BB720323FB7201233B7310
:100B200000237B730123BB730123FB733B461846F1
:100B30001FF00EFC01237B704FF010437B601A23E3
:100B40003B723B4618461FF003FC04201FF0E0FBFD
:100B500000BF1037BD4680BD80B582B000AF786061
:100B60007B681B68044A934201D11FF07BFA00BFE7
:100B70000837BD4680BD00BF0010004080B400AF04
:100B800072B600BFFEE7000080B58CB000AF364BF8
:100B9000D3F8E430344A43F00803C2F8E430324B6F
:100BA000D3F8E43003F00803BB61BB692E4BD3F8E4
:100BB000E0302D4A43F48073C2F8E0302A4BD3F87A
:100BC000E03003F480737B617B69274BD3F8E0301E
:100BD000254A43F40073C2F8E030234BD3F8E030E9
:100BE00003F400733B613B691F4BD3F8E0301E4AAE
:100BF00043F48063C2F8E0301B4BD3F8E03003F4D9
:100C00008063FB60FB68184BD3F8E030164A43F072
:100C10008003C2F8E030144BD3F8E03003F08003D7
:100C2000BB60BB68104BD3F8E0300F4A43F00803B9
:100C3000C2F8E0300C4BD3F8E03003F008037B60DF
:100C40007B688023FB6101233B6207F11C0319468B
:100C500006481FF01FFE01228021044820F0D4F82E
:100C600000BF3037BD4680BD00440258000C02581A
:100C700080B584B000AF786003233B7301237B739E
:100C80004023BB7307F10C03194600201EF068F9DE
:100C90000346002B01D07B68984700201EF03AFAEB
:100CA0000346002B01D07B68984700BF1037BD4634
:100CB00080BD80B582B000AF786000201EF098FD46
:100CC00000201EF039FD0346002B01D07B689847B9
:100CD00000BF0837BD4680BD80B582B000AF0C4B69
:100CE000D3F8F4300A4A43F00203C2F8F430084B58
:100CF000D3F8F43003F002037B607B6800220F21FD
:100D00006FF001001FF0B6FA00BF0837BD4680BD86
:100D10000044025880B485B000AF78607B681B68DF
:100D20000B4A93420ED10B4BD3F8E030094A43F4FF
:100D30000023C2F8E030074BD3F8E03003F400237F
:100D4000FB60FB6800BF1437BD465DF8047B70474D
:100D5000004C02580044025880B584B000AF78605F
:100D60007B681B680E4A934216D10E4BD3F8D430E1
:100D70000C4A43F01003C2F8D4300A4BD3F8D430F5
:100D800003F01003FB60FB68002205215A201FF0CE
:100D900071FA5A201FF088FA00BF1037BD4680BD97
:100DA000001000520044025880B5BCB000AF78601B
:100DB00007F1DC0300221A605A609A60DA601A6157
:100DC00007F12003BC22002118463AF0A5F97B6800
:100DD0001B68684A934240F0C8804FF000533B6262
:100DE00005237B64A023BB640223FB6402233B65D1
:100DF00053237B654FF40063BB650023FB65002331
:100E00003B6607F12003184623F058FB0346002BEE
:100E100001D0FFF7B3FE584BD3F8E430564A43F005
:100E20000803C2F8E430544BD3F8E43003F008036D
:100E3000FB61FB69504BD3F8E0304F4A43F48063C9
:100E4000C2F8E0304C4BD3F8E03003F48063BB6170
:100E5000BB69494BD3F8E030474A43F48073C2F88A
:100E6000E030454BD3F8E03003F480737B617B695D
:100E7000414BD3F8E030404A43F40073C2F8E0300D
:100E80003D4BD3F8E03003F400733B613B693A4BD0
:100E9000D3F8E030384A43F08003C2F8E030364BF4
:100EA000D3F8E03003F08003FB60FB68FC23C7F855
:100EB000DC300223C7F8E0300023C7F8E430022317
:100EC000C7F8E8300E23C7F8EC3007F1DC03194609
:100ED0002A481FF0DFFC4DF20323C7F8DC30022361
:100EE000C7F8E0300023C7F8E4300223C7F8E83041
:100EF0000E23C7F8EC3007F1DC03194620481FF039
:100F0000C9FC4FF6FB73C7F8DC300223C7F8E030AA
:100F10000023C7F8E4300223C7F8E8300E23C7F8EF
:100F2000EC3007F1DC03194616481FF0B3FC4FF410
:100F30000073C7F8DC300223C7F8E0300023C7F89D
:100F4000E4300223C7F8E8300E23C7F8EC3007F18D
:100F5000DC0319460C481FF09DFC00220521582097
:100F60001FF088F958201FF09FF900BFF037BD46E9
:100F700080BD00BF001000500044025800280258F5
:100F80000020025800240258001C025880B5BCB052
:100F900000AF786007F1DC0300221A605A609A60A3
:100FA000DA601A6107F12003BC22002118463AF0EA
:100FB000B3F87B681B68764A934240F0E4804FF0B8
:100FC00000733B620023BB6607F12003184623F041
:100FD00075FA0346002B01D0FFF7D0FD6D4BD3F817
:100FE000D4306C4A43F48043C2F8D430694BD3F810
:100FF000D43003F48043FB61FB69664BD3F8E030E7
:10100000644A43F04003C2F8E030624BD3F8E0306A
:1010100003F04003BB61BB695E4BD3F8E0305D4A2F
:1010200043F02003C2F8E0305A4BD3F8E03003F02D
:1010300020037B617B69574BD3F8E030554A43F07E
:101040008003C2F8E030534BD3F8E03003F0800364
:101050003B613B694F4BD3F8E0304E4A43F0080305
:10106000C2F8E0304B4BD3F8E03003F00803FB60EC
:10107000FB684FF48443C7F8DC300223C7F8E03044
:101080000023C7F8E4300323C7F8E8300923C7F882
:10109000EC3007F1DC0319463F481FF0FBFB40230F
:1010A000C7F8DC300223C7F8E0300123C7F8E4308A
:1010B0000323C7F8E8300A23C7F8EC3007F1DC0354
:1010C000194635481FF0E6FB4FF49863C7F8DC304B
:1010D0000223C7F8E0300023C7F8E4300323C7F841
:1010E000E8300923C7F8EC3007F1DC0319462B4838
:1010F0001FF0D0FB4FF40073C7F8DC300223C7F8B1
:10110000E0300023C7F8E4300323C7F8E8300A23AF
:10111000C7F8EC3007F1DC03194620481FF0BAFB92
:101120000C23C7F8DC300223C7F8E0300023C7F8EF
:10113000E4300323C7F8E8300923C7F8EC3007F19F
:10114000DC03194616481FF0A5FB4FF40063C7F8EF
:10115000DC300223C7F8E0300023C7F8E430032373
:10116000C7F8E8300923C7F8EC3007F1DC0319466B
:101170000C481FF08FFB002205215C201FF07AF83D
:101180005C201FF091F800BFF037BD4680BD00BF66
:10119000005000520044025800180258001402582F
:1011A000001C0258000C025880B5B6B000AF07F121
:1011B000C40300221A605A609A60DA601A614F4BC9
:1011C0001B68002B40F096804C4B01221A6007F1FF
:1011D0000803BC220021184639F09EFF4FF08073AF
:1011E000BB600023FB6407F10803184623F066F98F
:1011F0000346002B01D0FFF7C1FC414BD3F8D4309C
:101200003F4A43F48053C2F8D4303D4BD3F8D43036
:1012100003F480537B607B684FF68373C7F8C43058
:101220000223C7F8C8300023C7F8CC300323C7F81F
:10123000D0300C23C7F8D43007F1C4031946314825
:101240001FF028FB48F23313C7F8C4300223C7F855
:10125000C8300023C7F8CC300323C7F8D0300C23A4
:10126000C7F8D43007F1C403194627481FF012FB12
:101270004CF20373C7F8C4300223C7F8C830002308
:10128000C7F8CC300323C7F8D0300C23C7F8D430CC
:1012900007F1C40319461D481FF0FCFA4FF63F033F
:1012A000C7F8C4300223C7F8C8300023C7F8CC30D1
:1012B0000323C7F8D0300C23C7F8D43007F1C40398
:1012C000194613481FF0E6FAE023C7F8C43002239A
:1012D000C7F8C8300023C7F8CC300323C7F8D03094
:1012E0000C23C7F8D43007F1C403194609481FF08E
:1012F000D1FA00E000BFD837BD4680BD040300240A
:10130000004402580010025800180258000C0258FD
:1013100000140258001C025880B582B000AF7860FB
:10132000FFF742FF00BF0837BD4680BD80B500AF64
:10133000144B1B68002B23D1124B01221A60124B55
:10134000D3F8D430104A23F48053C2F8D4304FF687
:1013500083710E481FF04EFC48F233110C481FF009
:1013600049FC4CF203710B481FF044FC4FF63F015F
:1013700009481FF03FFCE02108481FF03BFC00E05B
:1013800000BF80BD0803002400440258001002582A
:1013900000180258000C025800140258001C025891
:1013A00080B582B000AF7860FFF7C0FF00BF08379C
:1013B000BD4680BD80B590B000AF78607B680F2BD4
:1013C00027D80022796836201EF054FF36201EF000
:1013D0006BFF294A7B681360284BD3F8E830274A13
:1013E00043F01003C2F8E830244BD3F8E83003F0A0
:1013F0001003FB60FB6807F1100207F114031146AC
:10140000184623F019F8BB6ABB63BB6B002B06D1EF
:1014100001E001232BE022F0E3FFF86304E022F077
:10142000DFFF03465B00FB63FB6B154AA2FB032354
:101430009B0C013B7B63134B134A1A60114B40F228
:10144000E732DA600F4A7B6B53600E4B00221A6161
:101450000C4B00229A600B4824F08FF90346002BB6
:1014600004D1084824F0EAF9034600E001231846B5
:101470004037BD4680BD00BF4800002400440258EC
:1014800083DE1B430C0300240010004080B400AF37
:10149000FEE780B400AFFEE780B400AFFEE780B4A3
:1014A00000AFFEE780B400AFFEE780B400AF00BF3E
:1014B000BD465DF8047B704780B500AF024824F05C
:1014C00035FA00BF80BD00BF0C03002480B500AF1B
:1014D000024820F025FC00BF80BD00BFD4010024DD
:1014E00080B500AF02481FF0C5F800BF80BD00BF47
:1014F0006C01002480B500AF024821F00BF900BF59
:1015000080BD00BF7C02002480B400AF01231846D8
:10151000BD465DF8047B704780B582B000AF78604F
:10152000396039F09FFD034616221A604FF0FF33F1
:1015300018460837BD4680BD80B582B000AF7860E0
:101540004FF0FF317868FFF7E7FFFEE780B586B020
:1015500000AFF860B9607A6000237B610AE0AFF306
:1015600000800146BB685A1CBA60CAB21A707B6917
:1015700001337B617A697B689A42F0DB7B681846AD
:101580001837BD4680BD80B586B000AFF860B96041
:101590007A6000237B6109E0BB685A1CBA601B7843
:1015A0001846AFF300807B6901337B617A697B6801
:1015B0009A42F1DB7B6818461837BD4680BD80B47F
:1015C00083B000AF78604FF0FF3318460C37BD464C
:1015D0005DF8047B704780B483B000AF78603960F9
:1015E0003B684FF400525A60002318460C37BD4642
:1015F0005DF8047B704780B483B000AF786001234E
:1016000018460C37BD465DF8047B704780B485B042
:1016100000AFF860B9607A60002318461437BD4601
:101620005DF8047B7047000080B586B000AF78603D
:10163000144A154BD31A7B617B693B61134B1B68C2
:10164000002B02D1114B124A1A60104B1A687B68AA
:1016500013443A699A4207D239F004FD03460C223A
:101660001A604FF0FF3309E0084B1B68FB60074B23
:101670001A687B681344054A1360FB6818461837DC
:10168000BD4680BD0000082400100000580300245F
:1016900088D10024DFF834D01CF076F80C480D49CE
:1016A0000D4A002302E0D458C4500433C4188C42BD
:1016B000F9D30A4A0A4C002301E013600432A24223
:1016C000FBD339F0E7FCFEF75BFE7047000008240F
:1016D000000000242C010024D8F503082C0100246C
:1016E00084D10024FEE780B500AF01F099FD00BF72
:1016F00080BD80B582B000AF786001F0BBFD00BF57
:101700000837BD4680BD000080B483B000AF78606C
:10171000044A7B681A607B6818460C37BD465DF842
:10172000047B70478CD5030880B582B000AF786029
:101730007868FFF7E9FF0421786839F033FC7B68AB
:1017400018460837BD4680BD80B582B000AF7860CE
:1017500000F050FB00BF0837BD4680BD80B584B0A7
:1017600000AFF860B9607A607968B86800F066FB2D
:10177000034618461037BD4680BD000080B582B0D4
:1017800000AF7860054A7B681A607B681846FFF7EF
:10179000BBFF7B6818460837BD4680BD74D503087B
:1017A00080B582B000AF78607868FFF7E7FF04216A
:1017B000786839F0F7FB7B6818460837BD4680BD6E
:1017C00080B582B000AF0346FB71FB79032B47D88D
:1017D00001A252F823F000BFE9170008071800081B
:1017E0002518000843180008FB791F4A52F82330D7
:1017F000002B0CBF01230023DBB21A4640211B48FB
:101800001FF002FB2CE0FB79174A52F82330002B23
:101810000CBF01230023DBB21A46802113481FF0BE
:10182000F3FA1DE0FB79104A52F82330002B0CBF6D
:1018300001230023DBB21A4608210D481FF0E4FA09
:101840000EE0FB79084A52F82330002B0CBF01232D
:101850000023DBB21A46402106481FF0D5FA00BF2C
:1018600000BF0837BD4680BD5C0300240004025859
:10187000001802580000025880B582B000AF03463D
:10188000FB71FB79032B47D801A252F823F000BF6C
:10189000A1180008BF180008DD180008FB18000890
:1018A000FB791F4A52F82330002B01D0012300E0BE
:1018B00000231A4640211B481FF0A6FA2CE0FB79B2
:1018C000174A52F82330002B01D0012300E00023F7
:1018D0001A46802113481FF097FA1DE0FB79104A41
:1018E00052F82330002B01D0012300E000231A46D8
:1018F00008210D481FF088FA0EE0FB79084A52F8DB
:101900002330002B01D0012300E000231A464021A0
:1019100006481FF079FA00BF00BF0837BD4680BDFA
:101920005C0300240004025800180258000002580A
:1019300080B582B000AF0346FB71FB79032B1FD843
:1019400001A252F823F000BF5919000863190008DA
:101950006D1900087719000840210B481FF06DFA37
:101960000EE0802108481FF068FA09E008210748C6
:101970001FF063FA04E0402105481FF05EFA00BF43
:1019800000BF0837BD4680BD000402580018025849
:101990000000025880B483B000AF7860044A7B68CE
:1019A0001A607B6818460C37BD465DF8047B7047AB
:1019B000C8E5030880B582B000AF78607868FFF7AB
:1019C000E9FF7C21786839F0EDFA7B681846083722
:1019D000BD4680BD80B483B000AF78600B46FB701D
:1019E0007B68FA7883F874207B68012283F875207D
:1019F00000BF0C37BD465DF8047B704780B582B0F0
:101A000000AF78600B467B8013463B800C4B1B88F5
:101A10007A889A4204D30B4B1B883A889A4205D2A3
:101A2000094B0A4A9E210A4839F0EAFA094A7B889A
:101A30001380094A3B88138000BF0837BD4680BD2C
:101A4000CCCE0024CECE002494C10308F8C10308F4
:101A50003CC20308D2CE0024D4CE002480B582B08C
:101A600000AF78607B6893F87730002B09D07B68F3
:101A70005A687B685B681B681B681046984703467A
:101A800000E0002318460837BD4680BD80B582B00F
:101A900000AF7860786825F0D5FA7B681B68AC33B6
:101AA0001B687868984700BF0837BD4680BD80B482
:101AB00083B000AF78603960002318460C37BD460C
:101AC0005DF8047B7047000080B584B000AFF8601B
:101AD000B9607A603B60BB68002B06D10F4B104A9F
:101AE00040F2D2210F4839F08BFAFB68BA68DA630A
:101AF000FB687A681A647B68002B14BF01230023FB
:101B0000DAB2094B1A70FB681B688C331B683968A2
:101B1000F868984700BF1037BD4680BD90C20308E3
:101B2000C8C203083CC20308D6CE002480B483B0E8
:101B300000AF786039607B683A685A643B68002B74
:101B400014BF01230023DAB2034B1A7000BF0C3715
:101B5000BD465DF8047B7047D7CE002480B483B0C7
:101B600000AF7860002318460C37BD465DF8047B53
:101B7000704780B582B000AF78600B467B807B6891
:101B80009B6B002B04D07B689B6B7A881046984730
:101B900000BF0837BD4680BD80B483B000AF786019
:101BA0004FF6FF7318460C37BD465DF8047B70474F
:101BB00080B582B000AF78607B685A687B685B68EC
:101BC0001B6818331B6810469847034618460837A9
:101BD000BD4680BD80B485B000AF78607B6893F867
:101BE00074207B6893F834309A4211D0144B1B78E0
:101BF000002B1ED1134B1B88BB81134B1A88114B32
:101C00001A80114ABB8913800D4B01221A7010E013
:101C10000B4B1B78002B0CD00A4B1B88FB810A4B0B
:101C20001A88084B1A80084AFB891380044B00224B
:101C30001A7000BF1437BD465DF8047B704700BFC3
:101C4000D0CE0024CECE0024CCCE002480B582B0ED
:101C500000AF78607B68184624F05AFC00BF083754
:101C6000BD4680BD80B582B000AF7860054A7B6814
:101C70001A607B681846FFF78DFE7B6818460837A8
:101C8000BD4680BD14D9030880B582B000AF78602E
:101C90007868FFF7E7FF7C21786839F083F97B6883
:101CA00018460837BD4680BD80B582B000AF786069
:101CB0007B681846FFF7CAFF00BF0837BD4680BDE6
:101CC00080B582B000AF78607B68184601F0C2FD35
:101CD00000BF0837BD4680BD80B582B000AF7860D8
:101CE0007B68184601F058FE034618460837BD4683
:101CF00080BD80B582B000AF786039607B6839689C
:101D0000184601F057FE00BF0837BD4680BD80B5BC
:101D100082B000AF786039607B683968184601F09E
:101D20005FFE00BF0837BD4680BD80B584B000AF00
:101D3000F860B9607A603B60F8683B687A68B968B7
:101D400001F0A6FE034618461037BD4680BD80B59B
:101D500082B000AF78607B68184601F09FFD00BF3D
:101D60000837BD4680BD80B582B000AF78607B6823
:101D7000184601F0A3FD00BF0837BD4680BD80B501
:101D800082B000AF78607B68184601F0A5FD00BF07
:101D90000837BD4680BD80B582B000AF78607B68F3
:101DA000184601F0A7FD00BF0837BD4680BD000002
:101DB00080B582B000AF7860054A7B681A607B68A6
:101DC0001846FFF74FFF7B6818460837BD4680BDB1
:101DD000A4D5030880B582B000AF78607868FFF7BB
:101DE000E7FF7C21786839F0DDF87B681846083712
:101DF000BD4680BD80B584B000AF4FF4F0733B604A
:101E00004FF488737B600823BB600023FB603B4674
:101E1000194600201DF072FE0346002B14BF01235B
:101E20000023DBB2002B03D1034B01221A7000E028
:101E300000BF1037BD4680BD6C03002480B582B062
:101E400000AF78603960114B1B7883F00103DBB27F
:101E5000002B01D0002314E00D4900201DF00AFFE3
:101E60000B4B1B68002B01D100230AE0084B5B6879
:101E70001A467B681A60064B9B681A463B681A60D4
:101E8000012318460837BD4680BD00BF6C030024FF
:101E90007003002480B500AF00220121012018F05A
:101EA000AAF903460F4A13600E4B1B68002B05D19D
:101EB0000D4B0E4A28210E4839F0A2F800220421C9
:101EC000012018F0B7FA03460A4A1360094B1B6851
:101ED000002B05D1084B054A2C21054839F090F814
:101EE00000BF80BD7C03002418C3030864C303083B
:101EF00094C303088003002400C4030880B500AF26
:101F0000044B1B684FF0FF31184618F0FDF900BF75
:101F100080BD00BF7C03002480B500AF034B1B686D
:101F2000184618F043FA00BF80BD00BF7C030024B0
:101F300080B500AF034B1B680021184618F0E4F988
:101F400000BF80BD7C03002480B500AF034B1B683D
:101F5000184618F02BFA00BF80BD00BF7C03002498
:101F600080B500AF044B186800230022034918F025
:101F7000D5FA00BF80BD00BF800300240400002408
:101F800080B582B000AF094B1868391D00230022CC
:101F900018F024FB054B1868391D4FF0FF33002261
:101FA00018F01CFB00BF0837BD4680BD800300242D
:101FB00080B483B000AF0346FB80B7F90630002B36
:101FC0000BDBFB8803F01F020749B7F906305B09FA
:101FD000012000FA02F241F8232000BF0C37BD4671
:101FE0005DF8047B704700BF00E100E080B483B07F
:101FF00000AF0346FB80B7F90630002B12DBFB88ED
:1020000003F01F020A49B7F906305B09012000FA04
:1020100002F2203341F82320BFF34F8F00BFBFF3FC
:102020006F8F00BF00BF0C37BD465DF8047B704763
:1020300000E100E080B483B000AF78607B680022EC
:102040001A607B6818460C37BD465DF8047B704704
:1020500080B483B000AF78607B681B6818460C378B
:10206000BD465DF8047B704780B483B000AF7860F4
:10207000044A7B681A607B6818460C37BD465DF8D9
:10208000047B7047CCD6030880B582B000AF78607F
:102090007868FFF7E9FF0421786838F083FF7B68F0
:1020A00018460837BD4680BD80B582B000AF786065
:1020B0007B681B6844331B687868984700BF083703
:1020C000BD4680BD80B483B000AF7860044A7B68B1
:1020D0001A607B6818460C37BD465DF8047B704774
:1020E000A0E6030880B582B000AF78607868FFF79B
:1020F000E9FF0C21786838F055FF7B6818460837EF
:10210000BD4680BD80B483B000AF78603960094AB5
:102110007B681A607B683A685A607B6800221A7292
:102120007B6800225A727B6818460C37BD465DF802
:10213000047B7047A0E6030880B483B000AF7860EA
:10214000012318460C37BD465DF8047B704780B507
:1021500082B000AF78607A687B681B6828331B68A0
:102160001046984700BF0837BD4680BD80B400AF19
:10217000034B1B681846BD465DF8047B704700BFE3
:10218000D8CE002480B582B000AF78607B685A68F2
:102190007B685B681B6814331B681046984700BF58
:1021A0000837BD4680BD80B582B000AF7860FFF7CC
:1021B000DDFF03461846FFF7E5FF00BF0837BD46C1
:1021C00080BD80B582B000AF78607B680C33184664
:1021D000FFF730FF7B6818460837BD4680BD00001A
:1021E000B0B582B000AF78607A687B680C3319466E
:1021F0001046FFF787FF0E4A7B681A607B6803F181
:102200000C007B6820336022194625F06DF87B684E
:1022100020335F241D46002C05DB2846FFF7D1FF45
:102220002435013CF7E77B6818460837BD46B0BD4A
:102230007CD6030880B582B000AF7860094A7B681D
:102240001A605A20FFF7D2FE7B680C33184600F064
:1022500037FB7B681846FFF735FF7B681846083761
:10226000BD4680BD7CD6030880B582B000AF7860E3
:102270007868FFF7DFFF4FF45A61786838F092FE14
:102280007B6818460837BD4680BD000080B584B025
:1022900000AF7860124BD3F8D430114A43F01003EA
:1022A000C2F8D4300E4BD3F8D43003F01003FB60E7
:1022B000FB680B4BDB6F0A4A43F01003D367084BF4
:1022C000DB6F074A23F01003D367064B064A1A62F6
:1022D0005A20FFF76DFE00BF1037BD4680BD00BF1E
:1022E000004402586C010024A721000880B584B086
:1022F00000AF78600B46FB700023FB60FB780B2B74
:1023000026D801A252F823F0452300083F230008F5
:1023100039230008512300085123000851230008E5
:10232000512300084B2300084B2300084B230008CF
:102330004B2300084B2300080023FB600EE0012321
:10234000FB600BE00223FB6008E00523FB6005E077
:10235000054B064A6621064838F052FEFB681846CF
:102360001037BD4680BD00BF44C4030860C40308E5
:10237000ACC4030880B584B000AF78600B46FB7036
:102380000023FB60FB780A2B21D801A252F823F02E
:10239000C9230008C3230008BD230008CF23000879
:1023A000CF230008CF230008CF230008C323000851
:1023B000C3230008C3230008C32300080023FB60D5
:1023C0000BE00123FB6008E00223FB6005E0054B06
:1023D000054A8721054838F013FEFB681846103778
:1023E000BD4680BD44C4030814C50308ACC403083B
:1023F00080B483B000AF786040F2EF3318460C37FA
:10240000BD465DF8047B704790B589B000AF786039
:1024100039603B685B7F19467868FFF767FFB861F2
:102420003B689B7F19467868FFF760FF78613B68DF
:102430009B7F19467868FFF79DFF38613B685B8B8F
:102440001A463B689B8AD21A924B1A643B685B8B94
:102450001A463B689B8AD21A8E4B9A613B681B8B4B
:102460001A463B689B8AD21A8A4B1A61894A3B6991
:1024700053633B68DB8A1A463B689B8A1B041A43FA
:10248000844B5A643B681A69824BDA633B685A682A
:10249000804BDA603B681B68B3F5007F36D0B3F53C
:1024A000007F00F2E280B3F5807F14D0B3F5807F27
:1024B00000F2DB80802B59D0802B00F2D680402B9D
:1024C00000F0BE80402B00F2D080042B39D0202BAE
:1024D00000F0B680C9E03B681B7F1B0619466D4AB9
:1024E0006D4B0B43D3613B680C336A4C1846FFF7C6
:1024F000AFFD03462362674A7B6953623B681A69F2
:10250000644B5A61634B654A1A60DAE03B681B7F93
:102510001B0619465F4A624B0B43D3613B680C3381
:102520005C4C1846FFF794FD03462362594A7B69C9
:1025300053623B681A69574B5A61564B574A1A60A7
:10254000BFE03B681B7F1B061A46BB691343514A19
:1025500043F40033D3614F4A7B6953623B681A6985
:102560004C4B5A614B4B4D4A1A60AAE00123FB7752
:102570003B689B68FB60FB681A1D464BDA623B6850
:102580001B7F1B061A46BB691343424A43F40033C0
:10259000D361404A7B6953623B681A693D4B5A617B
:1025A000FB681B88DBB2002B02D0012B0DD020E092
:1025B000384BDA693B4B1340FA685288013A1202F1
:1025C0001146344A0B43D3611AE03B681B7FFF2B53
:1025D00001D10023FB772F4BDA69324B1340FA68A5
:1025E0005288013A120213432A4A43F01003D3617E
:1025F00006E02D4B2D4A40F211112D4838F000FD18
:10260000244BDB69234A43F02003D361214BDB6970
:1026100003F02003002B14BF01230023DBB2002BA7
:1026200000D0F3E71B4B10229A60FB7F002B03D0F6
:10263000184B1A4A1A6044E0164B1E4A1A6040E0D2
:102640003B681B7F1B061A46BB691343114A43F4C0
:102650000033D3610F4A7B6953623B681A690D4BA3
:102660005A610C4B0D4A1A602BE03B681B7F1B061E
:102670001A46BB691343074A43F40033D3613B68EE
:102680005A7F3B689B7F9A4216D0024B094A1A60D8
:1026900016E000BF001000520A0002000102020012
:1026A00009000200EF00FFFF60C503087CC50308B6
:1026B000ACC4030801020100044B40F201221A607D
:1026C00000BF00BF2437BD4690BD00BF00100052C0
:1026D00090B585B000AF786039603B689B7F194644
:1026E0007868FFF747FEF8603B4AFB6853633B6836
:1026F000DB8A1A463B689B8A1B041A43364B5A6492
:102700003B681A69344BDA633B685B8B1A463B685B
:102710009B8AD21A304B1A643B681B68082B2ED157
:102720003B685B8B1A463B689B8AD21A2A4B9A619C
:102730003B685B8B1A463B689B8AD21A264B1A6110
:10274000254AFB6853623B681B7F1B061946224AD9
:10275000224B0B43D3613B680C331F4C1846FFF7E9
:1027600077FC034623623B681A691B4B5A613B683E
:102770001A69194BDA60184B194A1A6027E0164A91
:10278000FB68D361144B00221A613B680C33184676
:10279000FFF75EFC03461B0A03F478443B680C33E6
:1027A0001846FFF755FC03465B0903F4FC631C4322
:1027B0003B680C331846FFF74BFC0346DB0803F07D
:1027C0001F03054A23439363034B064A1A6000BF65
:1027D0001437BD4690BD00BF001000520900010033
:1027E000010202000102030080B400AF094B1B6824
:1027F00003F00103002B14BF01230023DBB2002BE5
:1028000000D0F3E7034B23229A6000BFBD465DF87A
:10281000047B70470010005280B485B000AFF860B0
:10282000B9607A60FB70224B1B6803F00103002B38
:1028300014BF01230023DBB2002B00D0F3E71C4BB5
:1028400023229A601A4B02225A63BB681B04184A5F
:1028500043F001035364164AFB68D363FB78FF2BF4
:1028600016D0134B02225A62FB781B061946104AF7
:10287000104B0B43D3610E4A7B6813620C4AFB6812
:1028800053610B4AFB68D360094B0B4A1A6008E09E
:10289000074B0222DA61064ABB699363044B074A7D
:1028A0001A6000BF1437BD465DF8047B704700BF57
:1028B00000100052090001000100020001000300A5
:1028C00080B582B000AF7860054A7B681A607B688B
:1028D0001846FFF7C9FB7B6818460837BD4680BD20
:1028E000F0E6030880B582B000AF78607868FFF743
:1028F000E7FF1421786838F055FB7B6818460837E5
:10290000BD4680BD80B483B000AF78607B68002294
:102910001A807B6800225A807B6800229A807B683C
:102920000022DA807B6818460C37BD465DF8047BD0
:102930007047000080B483B000AF7860044A7B68C1
:10294000136000BF0C37BD465DF8047B704700BFC5
:102950003CCF002480B483B000AF7860044A7B6829
:102960001A607B6818460C37BD465DF8047B7047DB
:1029700000D9030880B582B000AF78607868FFF7AF
:10298000E9FF0421786838F00DFB7B6818460837AA
:10299000BD4680BD80B485B000AFF860B9607A6094
:1029A0003B600B4AFB681A60FB68BA685A60FB68B8
:1029B0007A689A60FB683A68DA60FB68BA691A61FB
:1029C000FB6818461437BD465DF8047B704700BFAE
:1029D000F0D8030880B483B000AF7860044A7B6805
:1029E0001A607B6818460C37BD465DF8047B70475B
:1029F000F0D8030880B582B000AF78607868FFF740
:102A0000E9FF1421786838F0CDFA7B68184608375A
:102A1000BD4680BD80B483B000AF7860396000BF30
:102A20000C37BD465DF8047B704780B483B000AFBF
:102A30007860396000BF0C37BD465DF8047B704795
:102A400080B483B000AF7860396000BF0C37BD46FA
:102A50005DF8047B704780B483B000AF78600B46AC
:102A6000FB7000BF0C37BD465DF8047B704780B437
:102A700083B000AF786000BF0C37BD465DF8047BC3
:102A8000704780B483B000AF786000BF0C37BD469C
:102A90005DF8047B7047000080B483B000AF7860BD
:102AA000044A7B681A607B6818460C37BD465DF89F
:102AB000047B7047C8D8030880B582B000AF786047
:102AC0007868FFF7E9FF0421786838F06BFA7B68D3
:102AD00018460837BD4680BD80B483B000AF78602B
:102AE000044A7B681A607B6818460C37BD465DF85F
:102AF000047B704778F0030880B582B000AF78603F
:102B00007868FFF7E9FF0821786838F04BFA7B68AE
:102B100018460837BD4680BD80B483B000AF7860EA
:102B200000BF0C37BD465DF8047B704780B483B0AE
:102B300000AF78600B46FB7000BF0C37BD465DF8F8
:102B4000047B704780B483B000AF786039607B68E5
:102B50003A6803F596731068516803C300BF0C37D9
:102B6000BD465DF8047B704780B483B000AF7860E9
:102B7000044A7B681A607B6818460C37BD465DF8CE
:102B8000047B7047B0D8030880B582B000AF78608E
:102B90007868FFF7E9FF0421786838F003FA7B686A
:102BA00018460837BD4680BD80B483B000AF78605A
:102BB0007B6800221A807B6800225A807B68002292
:102BC0009A807B680022DA807B6800221A817B6809
:102BD00000225A817B6800229A817B6800229A73C6
:102BE0007B6818460C37BD465DF8047B704780B59E
:102BF00082B000AF78607B681846FFF7D5FF7B682E
:102C000000221A617B6800229A827B681846083786
:102C1000BD4680BD80B584B000AFF860B9607A6011
:102C20003B60554AFB681A60FB68BA685A60FB68EB
:102C30007A689A60FB683A68DA60FB6800221A6179
:102C4000FB6800225A61FB6800229A61FB681C3312
:102C50001846FFF7CCFFFB68002283F83420FB689E
:102C600000229A63FB680022DA63FB6800221A6480
:102C7000FB6800225A64FB68002283F84820FB6846
:102C8000012283F84920FB68002283F84A20FB6870
:102C9000002283F84B20FB680022DA64FB68503383
:102CA0001846FFF72FFEFB6800229A65FB6800229A
:102CB000DA65FB6800221A66FB68012283F864204B
:102CC000FB68002283F86520FB68002283F86620F9
:102CD000FB68012283F86720FB68002283F86820E4
:102CE000FB68002283F86920FB68002283F86A20D1
:102CF000FB68002283F86B20FB68002283F86C20BD
:102D0000FB6800221A67FB68002283F87420FB68C6
:102D1000002283F87520FB68002283F87620FB6888
:102D2000012283F87720FB68012283F87820134A78
:102D3000FB681360124A3B8B1380114B1A88114BAE
:102D40001A80114ABB8B13800F4B1A880F4B1A80C5
:102D50000F4B00221A703A8BBB8B9A4234BF01236F
:102D60000023DBB21A46FB6883F83420FB68184660
:102D70001037BD4680BD00BFC8E50308D8CE00248B
:102D8000CCCE0024D2CE0024CECE0024D4CE00243B
:102D9000D0CE002480B582B000AF7860054A7B6851
:102DA0001A607B681846FFF777FE7B68184608377D
:102DB000BD4680BDD0F0030880B582B000AF78601A
:102DC0007868FFF7E7FF4FF49C71786838F0EAF80D
:102DD0007B6818460837BD4680BD80B582B000AF1D
:102DE0007860786800F004F800BF0837BD4680BD01
:102DF00080B582B000AF78607B68D3F83C31002B9F
:102E00000FD07B68D3F83C217B68D3F83C311B683A
:102E10000C331B68104698470346002B01D0012352
:102E200000E00023002B0ED07B68D3F83C217B68A8
:102E3000D3F83C311B6808331B68104698477B6801
:102E40000022C3F83C2100BF0837BD4680BD00000A
:102E500080B582B000AF7860054A7B681A607B68F5
:102E60001846FFF797FF7B6818460837BD4680BDB8
:102E700064D8030880B582B000AF78607868FFF747
:102E8000E7FF4FF4A071786838F08CF87B6818463B
:102E90000837BD4680BD000080B582B000AF7860C5
:102EA000084A7B681A607B6803F5A073184600F037
:102EB0001BFB7B681846FFF7CBFF7B68184608377B
:102EC000BD4680BD00D8030880B582B000AF7860F1
:102ED0007868FFF7E1FF4FF4AC71786838F062F87A
:102EE0007B6818460837BD4680BD80B582B000AF0C
:102EF0007860786801F002FB00BF0837BD4680BDEE
:102F000080B582B000AF7860054A7B681A607B6844
:102F10001846FFF7C1FF7B6818460837BD4680BDDD
:102F2000B4D7030880B582B000AF78607868FFF747
:102F3000E7FF4FF4AC71786838F034F87B681846D6
:102F40000837BD4680BD80B582B000AF78607B6831
:102F5000D3F85431184616F06FFD7B68184628F0F8
:102F6000C3FD00BF0837BD4680BD80B582B000AF4D
:102F7000786039603B68184601F0C0FA00BF083736
:102F8000BD4680BD80B586B002AFF860B9607A609A
:102F90003B60F868BB6900933B687A68B968FFF7E3
:102FA000F9FC044AFB681A60FB6818461037BD46F6
:102FB00080BD00BFA0D7030880B500AF014800F076
:102FC00063F980BD8403002480B500AF124B1B78E9
:102FD000BFF35B8FDBB203F00103002B0CBF0123B7
:102FE0000023DBB2002B13D00B4837F0DDFF034684
:102FF000002B14BF01230023DBB2002B08D00748AD
:1030000000F068F8064838F019F8034837F0D8FFA0
:10301000024B184680BD00BF3C26002484030024D8
:10302000B92F000880B582B000AF7860054A7B6890
:103030001A607B681846FFF7CDFC7B681846083796
:10304000BD4680BDA0D7030880B582B000AF7860D0
:103050007868FFF7E7FF1421786837F0A3FF7B68F3
:1030600018460837BD4680BD80B582B000AF786095
:103070007B68184622F0A2FF034A7B681A607B68CF
:1030800018460837BD4680BD6CD7030880B582B0AE
:1030900000AF78607B68184622F090FF034A7B6897
:1030A0001A607B6818460837BD4680BD38D70308CC
:1030B00080B582B000AF78607B68184622F07EFF52
:1030C000034A7B681A607B6818460837BD4680BD96
:1030D00004D70308B0B584B002AF786078687B6825
:1030E00003F114017B6803F12C047B6803F504559C
:1030F0007A6842F26013134400932B462246FFF78E
:1031000041FF194A7B681A607B6814331846FFF741
:10311000ABFF7B682C331846FFF7B8FF7B6803F5DD
:1031200004531846FFF7C4FF7A6842F25C13134455
:10313000184616F073FC7A6842F2601313447A68FA
:1031400042F25C1111447A68184616F051FC786816
:103150007A6842F2601313441946FFF706FF7B6852
:1031600018460837BD46B0BDF0D6030880B586B016
:1031700002AFF860B9607A603B60F868BB8B01937E
:103180003B8B00933B687A68B968FFF743FD044ABC
:10319000FB681A60FB6818461037BD4680BD00BF4B
:1031A00014D9030880B586B002AFF860B9607A60C0
:1031B0003B60F868BB8B01933B8B00933B687A685C
:1031C000B968FFF7D3FF044AFB681A60FB6818462A
:1031D0001037BD4680BD00BFA4D5030880B483B0BE
:1031E00000AF7860044A7B681A607B6818460C3729
:1031F000BD465DF8047B70478CD5030880B582B06E
:1032000000AF78607B681846FFF7E8FF034A7B68E9
:103210001A607B6818460837BD4680BD74D5030820
:1032200090B585B002AF00F05DFD044600F064FD8E
:1032300003461946002300930023002220462BF06A
:10324000B5FD0948FFF776FB002016F025FB07487F
:103250002BF014FDFFF7B8FE78600548FEF730FD4F
:1032600000BF0C37BD4690BD5C340024080000242C
:103270006034002480B500AF024823F0B0F900BFED
:1032800080BD00BF6034002480B582B000AF78609C
:10329000114A7B681A607A6842F260131344184638
:1032A000FFF72EFE7B6803F50453184600F028F85C
:1032B0007B682C33184600F045F87B6814331846B9
:1032C00000F064F87B681846FFF7ACFE7B68184690
:1032D0000837BD4680BD00BFF0D6030880B582B078
:1032E00000AF78607868FFF7CFFF42F2B8217868C6
:1032F00037F058FE7B6818460837BD4680BD000091
:1033000080B582B000AF7860054A7B681A607B6840
:10331000184622F052FE7B6818460837BD4680BD2D
:1033200004D7030880B582B000AF78607868FFF7F3
:10333000E7FF5C21786837F035FE7B681846083770
:10334000BD4680BD80B582B000AF7860054A7B681D
:103350001A607B68184622F030FE7B6818460837F2
:10336000BD4680BD38D7030880B582B000AF786015
:103370007868FFF7E7FF42F2D401786837F012FE71
:103380007B6818460837BD4680BD000080B582B016
:1033900000AF7860054A7B681A607B68184622F0A7
:1033A0000CFE7B6818460837BD4680BD6CD7030805
:1033B00080B582B000AF78607868FFF7E7FF18212A
:1033C000786837F0EFFD7B6818460837BD4680BD4A
:1033D00080B582B000AF7860054A7B681A607B6870
:1033E0001846FFF7B7FA7B6818460837BD4680BD18
:1033F000ECD9030880B582B000AF78607868FFF739
:10340000E7FF0421786837F0CDFD7B681846083760
:10341000BD4680BD80B582B000AF7860054A7B684C
:103420001A607B681846FFF757FB7B681846083719
:10343000BD4680BD7CF4030880B582B000AF7860E3
:103440007868FFF7E7FF7821786837F0ABFD7B6895
:1034500018460837BD4680BD80B584B002AF78609D
:1034600039607B68012B19D13B684FF6FF7293429C
:1034700014D11848FFF7C2FE1748FEF7B1FE1748EF
:103480002EF096FD4FF4887301934FF4F073009380
:10349000104B124A10491248FFF784FE7B68002B3C
:1034A00013D13B684FF6FF7293420ED10C48FEF7E2
:1034B0007FFC0C48FFF78CFF0848FFF7ABFF06487E
:1034C000FEF7B8FE0348FEF759F900BF0837BD46BE
:1034D00080BD00BF4026002444260024E43300249D
:1034E000603400240800002480B582B000AF78600A
:1034F000054A7B681A607B681846FFF735FB7B68D6
:1035000018460837BD4680BD4CD8030880B582B048
:1035100000AF78607868FFF7E7FF1021786837F030
:1035200041FD7B6818460837BD4680BD80B483B036
:1035300000AF7860012318460C37BD465DF8047B68
:10354000704780B483B000AF7860542318460C37BE
:10355000BD465DF8047B704780B483B000AF7860EF
:103560000B467B807B88542202FB03F308337A6886
:10357000134418460C37BD465DF8047B704780B491
:1035800083B000AF78600B467B807B88542202FBBF
:1035900003F308337A68134418460C37BD465DF8C8
:1035A000047B704780B483B000AF78600123184675
:1035B0000C37BD465DF8047B704780B483B000AF24
:1035C000786042F2CC0318460C37BD465DF8047BA8
:1035D000704780B483B000AF78600B467B807B88F7
:1035E00042F2CC0202FB03F308337A681344184614
:1035F0000C37BD465DF8047B704780B483B000AFE4
:1036000078600B467B807B8842F2CC0202FB03F39E
:1036100008337A68134418460C37BD465DF8047BBE
:10362000704780B483B000AF7860012318460C3730
:10363000BD465DF8047B704780B483B000AF78600E
:10364000102318460C37BD465DF8047B704780B4E4
:1036500083B000AF78600B467B807B881B0108330A
:103660007A68134418460C37BD465DF8047B7047F2
:1036700080B483B000AF78600B467B807B881B01F1
:1036800008337A68134418460C37BD465DF8047B4E
:10369000704780B582B000AF78607B685B687A68FD
:1036A000D268521099187B68DB6803F00103002B85
:1036B00002D17B689B680AE07B685B687A68D268A5
:1036C000521013441B687A68926813441B680846BA
:1036D000984700BF0837BD4680BD80B483B000AFB7
:1036E00078607B685B68002B10D07B689B68002B40
:1036F00007D17B68DB6803F00103002B01D10123B4
:1037000000E00023012B01D0012300E00023184634
:103710000C37BD465DF8047B704780B500AF4FF6AF
:10372000FF710120FFF798FE80BD80B500AF4FF616
:10373000FF710020FFF790FE80BD80B582B000AF22
:1037400078607B681B6820331B687868984700BFE7
:103750000837BD4680BD80B483B000AF78607B6819
:1037600093F866300133DAB27B6883F8662000BFD5
:103770000C37BD465DF8047B7047000080B483B011
:1037800000AF0346FB80B7F90630002B0BDBFB884C
:1037900003F01F020749B7F906305B09012000FA60
:1037A00002F241F8232000BF0C37BD465DF8047BD0
:1037B000704700BF00E100E080B483B000AF034673
:1037C000FB80B7F90630002B12DBFB8803F01F02E9
:1037D0000A49B7F906305B09012000FA02F22033EA
:1037E00041F82320BFF34F8F00BFBFF36F8F00BF9F
:1037F00000BF0C37BD465DF8047B704700E100E078
:1038000080B483B000AF03463960FB80B7F906305F
:10381000002B0ADB3B68DAB20C49B7F9063012011B
:10382000D2B20B4483F800230AE03B68DAB20849BD
:10383000FB8803F00F03043B1201D2B20B441A764B
:1038400000BF0C37BD465DF8047B704700E100E027
:1038500000ED00E0B0B582B000AF78607B6818463C
:1038600022F0ABFE7D687B681B6864331C6828F01F
:103870003DFA034619462846A04778687B681B68CE
:1038800088331C680023044A4FF05041A04700BF12
:103890000837BD46B0BD00BF000020D080B582B063
:1038A00000AF786009215A20FFF7AAFF09215820AC
:1038B000FFF7A6FF00BF0837BD4680BD80B582B0C8
:1038C00000AF78605A20FFF759FF5820FFF756FFE6
:1038D00000BF0837BD4680BD80B582B000AF7860BC
:1038E0005A20FFF769FF5820FFF766FF00BF08372F
:1038F000BD4680BD80B483B000AF7860114BDB68FB
:103900009BB2C3F30A039BB2013B9AB20E4B1A80DF
:103910000C4B1B699BB2C3F30A039BB2013B9AB2E7
:103920000A4B1A80084B1A88064B1A64054B5B6BCE
:10393000044A43F00103536300BF0C37BD465DF8F2
:10394000047B704700100050DE340024E034002473
:1039500080B582B000AF78607B68184622F014FE14
:10396000034618460837BD4680BD000080B582B0CA
:1039700000AF78607B6893F84B30002B02D0054B8A
:1039800001221A707B68184622F00AFE00BF083731
:10399000BD4680BDDC34002480B483B000AF7860C5
:1039A000034B9B6A18460C37BD465DF8047B704795
:1039B0008410005080B483B000AF78603960064A4C
:1039C0003B689362054B01225A6200BF0C37BD462B
:1039D0005DF8047B704700BF841000500010005059
:1039E00080B586B000AF786039607B68396818466A
:1039F00022F094FD254B5B6903F48033002B14BF48
:103A000001230023DBB2002B3CD0204B0022C3F863
:103A10008420BFF34F8F00BF1C4BD3F880307B61F5
:103A20007B695B0BC3F30E033B617B69DB08C3F36C
:103A30000903FB603B695A0143F6E0731340FA68DF
:103A4000920712491343C1F87432FB685A1EFA6098
:103A5000002B14BF01230023DBB2002B00D0E9E7C9
:103A60003B695A1E3A61002B14BF01230023DBB2CD
:103A7000002B00D0D9E7BFF34F8F00BFBFF36F8F8C
:103A800000BF00BF00BF1837BD4680BD00ED00E09D
:103A900080B584B000AFF860B9607A603B60F868C8
:103AA0003B687A68B96822F0A2FE034618461037D0
:103AB000BD4680BD80B487B000AF7860264B5B699F
:103AC00003F48033002B14BF01230023DBB2002B4F
:103AD0003CD0214B0022C3F88420BFF34F8F00BF9E
:103AE0001D4BD3F880307B617B695B0BC3F30E0306
:103AF0003B617B69DB08C3F30903FB603B695A0147
:103B000043F6E0731340FA68920713491343C1F870
:103B10007432FB685A1EFA60002B14BF0123002385
:103B2000DBB2002B00D0E9E73B695A1E3A61002B5B
:103B300014BF01230023DBB2002B00D0D9E7BFF371
:103B40004F8F00BFBFF36F8F00BF00BF00BF1C3798
:103B5000BD465DF8047B704700ED00E080B487B09F
:103B600000AF7860264B5B6903F48033002B14BFF1
:103B700001230023DBB2002B3CD0214B0022C3F8F1
:103B80008420BFF34F8F00BF1D4BD3F880307B6183
:103B90007B695B0BC3F30E033B617B69DB08C3F3FB
:103BA0000903FB603B695A0143F6E0731340FA686E
:103BB000920713491343C1F87432FB685A1EFA6026
:103BC000002B14BF01230023DBB2002B00D0E9E758
:103BD0003B695A1E3A61002B14BF01230023DBB25C
:103BE000002B00D0D9E7BFF34F8F00BFBFF36F8F1B
:103BF00000BF00BF00BF1C37BD465DF8047B7047A7
:103C000000ED00E080B582B000AF7860FEF7AEFA5C
:103C10000346002B0CBF01230023DBB2002B32D163
:103C20001B4B1B6C1B4A128893420CBF01230023C1
:103C3000DBB2002B17D0184B1B88194678681EF092
:103C400065F9FEF793FA03461846FFF784FDFEF781
:103C500087F9FEF78BFA0346184623F0F3F90020A4
:103C6000FDF7AEFD10E00B4B1B88194678681EF07F
:103C70004DF9FEF77BFA03461846FFF75EFD00207C
:103C8000FDF7FAFD00E000BF0837BD4680BD00BF6C
:103C900000100050DE340024E034002480B582B0EF
:103CA00000AF78600B467B807B88022B10D0022B04
:103CB00013DC002B02D0012B05D00EE015F064FEC2
:103CC00003461B680AE015F05FFE03465B6805E0EB
:103CD00015F05AFE03469B6800E00023184608379B
:103CE000BD4680BD80B400AF024B1846BD465DF8AE
:103CF000047B7047F8D9030880B400AF012318464D
:103D0000BD465DF8047B704780B483B000AF786037
:103D1000044A7B681A607B6818460C37BD465DF81C
:103D2000047B7047CCE2030880B582B000AF7860B6
:103D30007868FFF7E9FF1021786837F033F97B687E
:103D400018460837BD4680BD90B587B000AF786093
:103D50000B467B807B88002B01D1002310E00023E1
:103D60003B610023FB737B681B6808331C6807F109
:103D70000F0307F1100279887868A04778617B69A2
:103D800018461C37BD4690BD80B483B000AF786044
:103D90007B685B8918460C37BD465DF8047B70472D
:103DA00080B483B000AF78607B689B8918460C377D
:103DB000BD465DF8047B704780B483B000AF786087
:103DC0007B689B8818460C37BD465DF8047B7047BE
:103DD00080B483B000AF78607B689A887B689B79F9
:103DE0009BB213449BB218460C37BD465DF8047B6A
:103DF000704780B483B000AF78607B68DB79C3F331
:103E00000603DBB218460C37BD465DF8047B7047ED
:103E100080B483B000AF78607B68DB79C3F3C013F4
:103E2000DBB218460C37BD465DF8047B70470000D6
:103E300080B582B000AF7860054A7B681A607B6805
:103E40001846FFF761FF7B6818460837BD4680BDFE
:103E500084F1030880B582B000AF78607868FFF71E
:103E6000E7FF1821786837F09DF87B681846083717
:103E7000BD4680BD80B582B000AF7860054A7B68E2
:103E80001A607B681846FFF7D3FF7B68184608372F
:103E9000BD4680BD74DB030880B582B000AF78609A
:103EA0007868FFF7E7FF2821786837F07BF87B68B0
:103EB00018460837BD4680BD80B483B000AF786037
:103EC000044A7B681A607B6818460C37BD465DF86B
:103ED000047B704714DA030880B582B000AF7860C5
:103EE0007868FFF7E9FF0821786837F05BF87B68AE
:103EF00018460837BD4680BD80B483B000AF7860F7
:103F000039603B6818460C37BD465DF8047B704746
:103F100080B483B000AF7860044A7B681A607B6825
:103F200018460C37BD465DF8047B70471CF103084A
:103F300080B582B000AF78607868FFF7E9FF28218C
:103F4000786837F02FF87B6818460837BD4680BD83
:103F500080B582B000AF78607B6893F82530002B85
:103F600005D07B681B6814331B687868984700BFCE
:103F70000837BD4680BD80B483B000AF78600023B1
:103F800018460C37BD465DF8047B704780B584B099
:103F900000AFF860084611461A4603467B810B467F
:103FA0003B811346FB80B7F90820B7F90A30194660
:103FB000F86800F037F8B7F91820B7F90630194655
:103FC000F86800F08BF800BF1037BD4680BD80B4A4
:103FD00083B000AF78607B68B3F9043018460C37C3
:103FE000BD465DF8047B704780B483B000AF786055
:103FF0000B467B807B687A889A8000BF0C37BD4671
:104000005DF8047B704780B483B000AF78600B46E6
:104010007B807B687A88DA8000BF0C37BD465DF80C
:10402000047B704780B582B000AF78600B467B8020
:1040300013463B807B681B6830331B68B7F902204E
:104040001146786898477B681B6834331B68B7F95A
:10405000002011467868984700BF0837BD4680BDEC
:1040600080B483B000AF78600B467B807B687A8831
:104070001A8100BF0C37BD465DF8047B704780B4E1
:1040800083B000AF78600B467B807B687A885A816A
:1040900000BF0C37BD465DF8047B704780B483B029
:1040A00000AF786000BF0C37BD465DF8047B7047F9
:1040B00080B483B000AF7860396000BF0C37BD4674
:1040C0005DF8047B704780B483B000AF78603960DE
:1040D00000BF0C37BD465DF8047B704780B582B0E9
:1040E00000AF78600B467B8013463B807B681B6883
:1040F00038331B68B7F902201146786898477B6807
:104100001B683C331B68B7F9002011467868984754
:1041100000BF0837BD4680BD80B483B000AF786073
:10412000396000BF0C37BD465DF8047B704780B432
:1041300083B000AF786000BF0C37BD465DF8047BEC
:10414000704780B483B000AF78607B6893F8253007
:1041500018460C37BD465DF8047B704780B483B0C9
:1041600000AF78607B6893F8243018460C37BD4662
:104170005DF8047B704780B582B000AF78600B4675
:104180007B8013463B807B681B6854331B687988AF
:104190007A68B2F9042092B28A1A92B210B23988BF
:1041A0007A68B2F9062092B28A1A92B212B2014625
:1041B0007868984700BF0837BD4680BD80B483B09B
:1041C00000AF78607B684FF6FF729A817B684FF68C
:1041D000FF721A847B684FF6FF725A8400BF0C3757
:1041E000BD465DF8047B704780B584B000AFF860D1
:1041F000B9607A60F868FFF7E1FF7B681A68FB68CE
:10420000DA617B68FA681A6000BF1037BD4680BD6E
:1042100080B400AF0B4B1B6893F87630002B08D0AE
:10422000084B1B68DB6C002B03D0064B1B68DB6C58
:1042300002E0044B1B689B681846BD465DF8047B92
:10424000704700BFD8CE002480B483B000AF786040
:10425000074A7B681A607B6800225A607B680022EC
:104260001A727B6818460C37BD465DF8047B7047B0
:1042700050DB030880B483B000AF7860044A7B68E9
:104280001A607B6818460C37BD465DF8047B7047A2
:1042900050DB030880B582B000AF78607868FFF724
:1042A000E9FF0C21786836F07DFE7B6818460837F8
:1042B000BD4680BD80B483B000AF786000BF0C37CE
:1042C000BD465DF8047B704780B483B000AF786072
:1042D00000BF0C37BD465DF8047B704780B483B0E7
:1042E00000AF786000BF0C37BD465DF8047B7047B7
:1042F00080B582B000AF786027F0F8FC034618461E
:1043000028F09AF800BF0837BD4680BD80B483B05E
:1043100000AF786039607B683A685A6000BF0C373C
:10432000BD465DF8047B704780B582B000AF786011
:104330007B68184627F0FCFC094A7B681A607B689A
:104340000022C3F838217B680022C3F83C217B6837
:10435000044A13607B6818460837BD4680BD00BF1D
:1043600064D803082CCF002480B483B000AF7860F9
:1043700039607B683A681A6000BF0C37BD465DF84B
:10438000047B704780B483B000AF78607B68012203
:104390001A7200BF0C37BD465DF8047B704780B5CC
:1043A00084B000AFF8607B600B467B8113463B8195
:1043B000FB681846FFF7C5FE0346002B08D0FB68D4
:1043C0001846FFF7CBFE0346002B01D0012300E087
:1043D0000023002B02D0FA687B681A6000BF1037F8
:1043E000BD4680BD80B483B000AF786039607B6823
:1043F0003A685A6000BF0C37BD465DF8047B7047D1
:1044000080B582B000AF7860054A7B681A607B682F
:104410001846FFF77DFD7B6818460837BD4680BD0E
:10442000C4DA030880B582B000AF78607868FFF71F
:10443000E7FF2821786836F0B5FD7B681846083715
:10444000BD4680BD80B584B000AFF860B9607A60C9
:10445000FB681846FFF768FF134AFB681A60FB68A1
:1044600003F5A073184600F071F9FB687A68C3F889
:104470005021FB68BA68C3F85421FDF777FE034664
:104480001A6808321268002118469047002015F07B
:1044900003FAFFF7BDFE034618462FF070FBFB68DA
:1044A00018461037BD4680BD00D8030880B483B0DD
:1044B00000AF786039607B6818460C37BD465DF800
:1044C000047B704780B582B000AF786039607B684C
:1044D0003A6811461846FFF7E9FF3B685A687B685F
:1044E0005A607B683A680833083292E8030083E830
:1044F00003007B6818460837BD4680BD90B589B07B
:1045000000AF78607B6803F5A074104BBB6100239B
:10451000FB6107F1080007F118030CCB796800F084
:1045200031F907F1080319462046FFF7CBFF07F1E1
:1045300008031846FEF7D8FF7B6803F5A0727B6876
:10454000C3F83C2100BF2437BD4690BD514500084B
:1045500080B584B002AF78607B6803F59C717B689E
:10456000D3F850311A467B68D3F854310093044B8A
:10457000044800F039F900BF0837BD4680BD00BFD0
:1045800020CF00241CCF002490B589B000AF786004
:104590007B6803F5A074104BBB610023FB6107F13E
:1045A000080007F118030CCB796800F0EBF807F16D
:1045B000080319462046FFF785FF07F10803184650
:1045C000FEF792FF7B6803F5A0727B68C3F83C217D
:1045D00000BF2437BD4690BDDD45000880B584B0DE
:1045E00002AF78607B6803F59C717B68D3F850312B
:1045F0001A467B68D3F854310093044B044800F00A
:104600000FFA00BF0837BD4680BD00BF20CF002491
:104610001CCF002490B589B000AF78607B6803F5AB
:10462000A074104BBB610023FB6107F1080007F188
:1046300018030CCB796800F0A5F807F108031946B8
:104640002046FFF73FFF07F108031846FEF74CFF2F
:104650007B6803F5A0727B68C3F83C2100BF243758
:10466000BD4690BD6946000880B584B002AF786051
:104670007B6803F59C717B68D3F850311A467B68E0
:10468000D3F854310093044B044800F0E7FA00BF1C
:104690000837BD4680BD00BF20CF00241CCF0024BA
:1046A00090B589B000AF78607B6803F5A074104BBB
:1046B000BB610023FB6107F1080007F118030CCB75
:1046C000796800F05FF807F1080319462046FFF704
:1046D000F9FE07F108031846FEF706FF7B6803F5AD
:1046E000A0727B68C3F83C2100BF2437BD4690BD53
:1046F000F546000880B584B002AF78607B6803F5AA
:104700009C717B68D3F850311A467B68D3F85431DA
:104710000093044B044800F0BFFB00BF0837BD46C0
:1047200080BD00BF20CF00241CCF002480B483B004
:1047300000AF7860044A7B681A607B6818460C37C3
:10474000BD465DF8047B7047B0D8030880B582B0E1
:1047500000AF78607B681846FFF7E8FF084A7B687F
:104760001A607B6800225A607B6800229A607B682E
:104770000022DA607B6818460837BD4680BD00BF5E
:104780004CD8030880B584B000AFF860B9603946F2
:1047900081E80C00FB681846FFF7C8FF084AFB6871
:1047A0001A60FB68BA685A60FB6808333A4692E8B8
:1047B000030083E80300FB6818461037BD4680BD40
:1047C0004CD8030880B582B000AF78607B6818468B
:1047D000FFF73AFD034A7B681A607B681846083782
:1047E000BD4680BD2CDB030890B58FB000AFF860EC
:1047F000B9607A603B607B689A687B689B681B68DD
:1048000020331B68104698470346B3F5867F05D2D0
:104810007E4B7F4AA3217F4836F0F2FB00BF7B68C6
:104820005A687B685B681B6820331B681046984792
:1048300003460F2B05D8784B754AA421754836F0EE
:10484000DFFB00BF7B68DA687B68DB681B682033AE
:104850001B681046984703460B2B05D86F4B6C4AD4
:10486000A5216C4836F0CCFB00BFFB68BB62BB687F
:104870007B623B683B6227F039FA0346184627F013
:104880003BFA3B6A1B68002B08D03B6A1A683B6AFC
:104890001B681B680C331B68104698473B6A1B68F3
:1048A000002B07D03B6A1A683B6A1B681B681B68B1
:1048B00010469847BB6A1B68002B08D0BB6A1A6871
:1048C000BB6A1B681B6814331B68104698477B6AD9
:1048D0001B68002B08D07B6A1A687B6A1B681B6800
:1048E00004331B6810469847BB6A1B68002B07D02F
:1048F000BB6A1A68BB6A1B681B681B68104698472E
:104900007B6A1B68002B08D07B6A1A687B6A1B686D
:104910001B6808331B681046984700BF7B68DB683C
:104920000021184600F0D6FB034619460C20FFF77D
:10493000E3FA04462046FFF745FF7C637B689B68EB
:104940000021184600F0D9FB034619464FF4867043
:10495000FFF7D2FA0446204615F07CF93C637B68E9
:104960005B680021184600F0DBFB03461946102067
:10497000FFF7C2FA0446396B204615F013F9FC62C2
:104980003B687A6B1A60BB68FA6A1A60FB683A6B1C
:104990001A60FB6A002B02D0FB6A043300E000239C
:1049A0001946B86CFFF7E0FCFB6A0433B96C184693
:1049B000FFF718FD3B6BF96A184600F0C4FB3B6B30
:1049C000FB61FB6ABB617B6B7B61FB691B680C3322
:1049D0001B68F8699847BB691B681B68B8699847EA
:1049E0007969F86928F02AFE7B691B6810331B6817
:1049F000786998477B691B6814331B687869984706
:104A000000BFFB6A18463C37BD4690BDBCC50308D5
:104A10004CC6030850C70308A8C703084CC80308BE
:104A200090B58FB000AFF860B9607A603B607B688A
:104A30009A687B689B681B6820331B681046984700
:104A4000034642F2CB02934205D87F4B7F4AA32113
:104A50007F4836F0D5FA00BF7B685A687B685B6890
:104A60001B6820331B681046984703460F2B05D858
:104A7000784B764AA421764836F0C2FA00BF7B68AC
:104A8000DA687B68DB681B6820331B681046984730
:104A90000346532B05D8704B6C4AA5216C4836F061
:104AA000AFFA00BFFB68BB62BB687B623B683B62DE
:104AB00027F01CF90346184627F01EF93B6A1B68CD
:104AC000002B08D03B6A1A683B6A1B681B680C33D2
:104AD0001B68104698473B6A1B68002B07D03B6A4F
:104AE0001A683B6A1B681B681B6810469847BB6ABC
:104AF0001B68002B08D0BB6A1A68BB6A1B681B685E
:104B000014331B68104698477B6A1B68002B08D03B
:104B10007B6A1A687B6A1B681B6804331B68104633
:104B20009847BB6A1B68002B07D0BB6A1A68BB6A30
:104B30001B681B681B68104698477B6A1B68002B24
:104B400008D07B6A1A687B6A1B681B6808331B687D
:104B50001046984700BF7B68DB680021184600F0CC
:104B600000FB034619465420FFF7C6F904461421FA
:104B7000204600F04DFB7C637B689B680021184653
:104B800000F0AAFB0346194642F2CC00FFF7B4F945
:104B90000446204615F014F93C637B685B680021ED
:104BA000184600F0ACFB034619461020FFF7A4F9A5
:104BB0000446396B204615F0ABF8FC623B687A6B13
:104BC0001A60BB68FA6A1A60FB683A6B1A60FB6A83
:104BD000002B02D0FB6A043300E000231946B86CB6
:104BE000FFF7C2FBFB6A0433B96C1846FFF7FAFB08
:104BF0003B6BF96A184600F095FB3B6BFB61FB6A67
:104C0000BB617B6B7B61FB691B680C331B68F869BC
:104C10009847BB691B681B68B86998477969F86948
:104C200028F00CFD7B691B6810331B687869984776
:104C30007B691B6814331B687869984700BFFB6A5F
:104C400018463C37BD4690BDBCC50308F0C80308F4
:104C500050C70308A8C703084CC8030890B58FB015
:104C600000AFF860B9607A603B607B689A687B68E7
:104C70009B681B6820331B6810469847034642F226
:104C8000CB02934205D87F4B7F4AA3217F4836F061
:104C9000B7F900BF7B685A687B685B681B68203384
:104CA0001B681046984703460F2B05D8784B764A69
:104CB000A421764836F0A4F900BF7B68DA687B68E7
:104CC000DB681B6820331B68104698470346532B4C
:104CD00005D8704B6C4AA5216C4836F091F900BF9D
:104CE000FB68BB62BB687B623B683B6226F0FEFFF1
:104CF0000346184627F000F83B6A1B68002B08D0D3
:104D00003B6A1A683B6A1B681B680C331B681046B9
:104D100098473B6A1B68002B07D03B6A1A683B6ABE
:104D20001B681B681B6810469847BB6A1B68002BF2
:104D300008D0BB6A1A68BB6A1B681B6814331B68FF
:104D4000104698477B6A1B68002B08D07B6A1A685C
:104D50007B6A1B681B6804331B6810469847BB6A54
:104D60001B68002B07D0BB6A1A68BB6A1B681B68EC
:104D70001B68104698477B6A1B68002B08D07B6A2B
:104D80001A687B6A1B681B6808331B6810469847C3
:104D900000BF7B68DB680021184600F0D1FA0346AB
:104DA00019465420FFF7A8F804461421204600F0C5
:104DB000FDFA7C637B689B680021184600F08CFA42
:104DC0000346194642F2CC00FFF796F80446204607
:104DD00014F0F6FF3C637B685B680021184600F026
:104DE0008EFA034619461020FFF786F80446396B01
:104DF000204614F08DFFFC623B687A6B1A60BB683A
:104E0000FA6A1A60FB683A6B1A60FB6A002B02D0E0
:104E1000FB6A043300E000231946B86CFFF7A4FADC
:104E2000FB6A0433B96C1846FFF7DCFA3B6BF96A8E
:104E3000184600F077FA3B6BFB61FB6ABB617B6B4A
:104E40007B61FB691B680C331B68F8699847BB6979
:104E50001B681B68B86998477969F86928F0EEFB08
:104E60007B691B6810331B68786998477B691B68EE
:104E700014331B687869984700BFFB6A18463C37B3
:104E8000BD4690BDBCC5030808CA030850C7030847
:104E9000A8C703084CC8030890B58FB000AFF860EE
:104EA000B9607A603B607B689A687B689B681B6826
:104EB00020331B6810469847034642F2CB029342C8
:104EC00005D87F4B7F4AA3217F4836F099F800BF71
:104ED0007B685A687B685B681B6820331B681046D8
:104EE000984703460F2B05D8784B764AA42176487D
:104EF00036F086F800BF7B68DA687B68DB681B6881
:104F000020331B68104698470346532B05D8704B37
:104F10006C4AA5216C4836F073F800BFFB68BB6291
:104F2000BB687B623B683B6226F0E0FE03461846A6
:104F300026F0E2FE3B6A1B68002B08D03B6A1A6829
:104F40003B6A1B681B680C331B68104698473B6A1A
:104F50001B68002B07D03B6A1A683B6A1B681B68FA
:104F60001B6810469847BB6A1B68002B08D0BB6AB9
:104F70001A68BB6A1B681B6814331B681046984785
:104F80007B6A1B68002B08D07B6A1A687B6A1B68E7
:104F90001B6804331B6810469847BB6A1B68002BCC
:104FA00007D0BB6A1A68BB6A1B681B681B6810467F
:104FB00098477B6A1B68002B08D07B6A1A687B6A5B
:104FC0001B681B6808331B681046984700BF7B6846
:104FD000DB680021184600F0C4F803461946542047
:104FE000FEF78AFF04461421204600F011F97C6385
:104FF0007B689B680021184600F03AFA0346194680
:1050000042F2CC00FEF778FF0446204614F08EFFF3
:105010003C637B685B680021184600F03CFA03465D
:1050200019461020FEF768FF0446396B204614F03D
:1050300025FFFC623B687A6B1A60BB68FA6A1A60EB
:10504000FB683A6B1A60FB6A002B02D0FB6A0433E0
:1050500000E000231946B86CFFF786F9FB6A0433B9
:10506000B96C1846FFF7BEF93B6BF96A184600F0B9
:1050700025FA3B6BFB61FB6ABB617B6B7B61FB6968
:105080001B680C331B68F8699847BB691B681B6871
:10509000B86998477969F86928F0D0FA7B691B6884
:1050A00010331B68786998477B691B6814331B6849
:1050B0007869984700BFFB6A18463C37BD4690BDEB
:1050C000BCC5030820CB030850C70308A8C70308C2
:1050D0004CC8030880B582B000AF78600B467B8077
:1050E0007B681B6824331B687A8811467868984768
:1050F000034618460837BD4680BD80B582B000AF74
:1051000078600B467B807B681B6824331B687A8839
:10511000114678689847034618460837BD4680BD53
:1051200080B582B000AF78600B467B807B681B68DF
:1051300024331B687A8811467868984703461846D6
:105140000837BD4680BD80B483B000AF7860396059
:105150007B683A68DA6300BF0C37BD465DF8047BB4
:10516000704780B582B000AF78600B467B807B686B
:105170001B6824331B687A88114678689847034671
:1051800018460837BD4680BD80B582B000AF786054
:10519000054A7B681A607B681846FFF731F97B681F
:1051A00018460837BD4680BD94EE030880B582B02E
:1051B00000AF78607868FFF7E7FF2C21786835F05A
:1051C000F1FE7B6818460837BD4680BD80B582B0C9
:1051D00000AF7860054A7B681A607B68184600F06B
:1051E000C5F97B6818460837BD4680BD94DA0308C8
:1051F00080B582B000AF78607868FFF7E7FF1021D4
:10520000786835F0CFFE7B6818460837BD4680BD0C
:1052100090B587B002AF78600B46FB707B6818468C
:10522000FFF712F8274A7B681A607B680C33184630
:1052300023F08EFD7B6803F10C027B689A637B6828
:1052400003F13C04204A07F1080392E8030083E8D5
:10525000030007F108030CCB7968204600F066F9DB
:105260007B68FA7883F84C207B68002283F84D2015
:105270007B680022A3F85020144B1B78002B1CD015
:105280007B6803F10C00124B1B881AB2114B1B8870
:105290001BB20093134600220021FEF777FE7B68C5
:1052A0000C33184623F0D8FC094B1B885B429BB299
:1052B0001AB27B68A3F84E2000BF7B6818461437EB
:1052C000BD4690BD68DA030838CC0308D7CE002469
:1052D000CCCE0024CECE002480B582B000AF786062
:1052E0000B467B807B681B6824331B687A881146D9
:1052F00078689847034618460837BD4680BD80B594
:1053000082B000AF78600B467B807B681B682433DB
:105310001B687A881146786898470346184608370C
:10532000BD4680BD80B483B000AF786039607B68D3
:105330003A68DA6300BF0C37BD465DF8047B7047FE
:1053400080B582B000AF78600B467B807B681B68BD
:1053500024331B687A8811467868984703461846B4
:105360000837BD4680BD000080B582B000AF7860D0
:10537000054A7B681A607B68184600F0F7F87B687E
:1053800018460837BD4680BD50DA030880B582B0A4
:1053900000AF78607868FFF7E7FF1021786835F094
:1053A00001FE7B6818460837BD4680BD90B587B0C2
:1053B00002AF78600B46FB707B681846FEF744FF2F
:1053C000264A7B681A607B680C33184623F0C0FCC1
:1053D0007B6803F10C027B689A637B6803F13C04F1
:1053E0001F4A07F1080392E8030083E8030007F16E
:1053F00008030CCB7968204600F0F2F87B68FA7855
:1054000083F84C207B68002283F84D207B680022C3
:10541000A3F85020134B1B78002B1AD07B6803F1A4
:105420000C00114B1B881AB2104B1B881BB2009347
:10543000134600220021FEF7A9FD7B680C331846B5
:1054400023F00AFC084B1B881AB27B68A3F84E2095
:1054500000BF7B6818461437BD4690BD24DA0308A8
:1054600040CC0308D7CE0024CCCE0024CECE0024DE
:1054700080B582B000AF78600B467B807B681B688C
:1054800024331B687A881146786898470346184683
:105490000837BD4680BD80B582B000AF78600B464E
:1054A0007B807B681B6824331B687A881146786888
:1054B0009847034618460837BD4680BD80B483B080
:1054C00000AF786039607B683A68DA6300BF0C37F8
:1054D000BD465DF8047B704780B582B000AF786050
:1054E00039607B689B6B3A689A420AD03B681B68BC
:1054F00054331B687A68B2F9501000223868984714
:1055000000E000BF0837BD4680BD000080B483B016
:1055100000AF7860044A7B681A607B6818460C37D5
:10552000BD465DF8047B7047ACDA030880B584B0F3
:1055300000AFF860B960394681E80C00FB68184696
:10554000FFF7E4FF084AFB681A60FB68BA685A6014
:10555000FB6808333A4692E8030083E80300FB68DF
:1055600018461037BD4680BD94DA030880B483B076
:1055700000AF7860044A7B681A607B6818460C3775
:10558000BD465DF8047B7047ACDA030880B582B095
:1055900000AF78607868FFF7E9FF0421786835F09C
:1055A00001FD7B6818460837BD4680BD80B582B0D6
:1055B00000AF786039607B689B6B3A689A420AD08A
:1055C0003B681B6854331B687A68B2F9501000229C
:1055D0003868984700E000BF0837BD4680BD00002E
:1055E00080B584B000AFF860B960394681E80C003E
:1055F000FB681846FFF78AFF084AFB681A60FB68D9
:10560000BA685A60FB6808333A4692E8030083E8B8
:105610000300FB6818461037BD4680BD50DA03080A
:1056200080B582B000AF78600A4A7B681A607B68F8
:105630003C331846FFF798FE7B680C331846FFF79B
:10564000A3FD7B681846FEF715FE7B6818460837F1
:10565000BD4680BD24DA030880B582B000AF786013
:105660007868FFF7DDFF5421786835F09BFC7B6894
:1056700018460837BD4680BD80B582B000AF78605F
:105680000A4A7B681A607B683C331846FFF79EFD28
:105690007B680C331846FFF777FD7B681846FEF7EA
:1056A000E9FD7B6818460837BD4680BD68DA030807
:1056B00080B582B000AF78607868FFF7DDFF5421D5
:1056C000786835F06FFC7B6818460837BD4680BDAA
:1056D00080B582B000AF7860054A7B681A607B684D
:1056E0001846FEF7C7FD7B6818460837BD4680BDE3
:1056F0002CDB030880B582B000AF78607868FFF7D4
:10570000E7FF0C21786835F04DFC7B6818460837B8
:10571000BD4680BD80B582B000AF7860404B1B783D
:1057200083F00103DBB2002B03D07B6801221A72E5
:1057300073E07B681846FEF7BDFD7B6893F84D303B
:105740000133DAB27B6883F84D207B6893F84D20F3
:105750007B6893F84C309A422FD87B6893F84D3091
:1057600098B27B68B3F94E207B6893F84C309BB2BB
:10577000002127F069FF03461A467B68A3F85020F2
:105780007B68B3F950309BB203F001039BB2002B4E
:105790001BD07B68B3F950309BB27A68B2F95020C5
:1057A000002A01DD012201E04FF6FF7213449BB293
:1057B0001AB27B68A3F8502007E07B6801221A72B6
:1057C0007B68002283F84D2027E07B680C33184665
:1057D000FEF7FDFB034619467B68B3F950309AB2D9
:1057E0008BB2D31A9BB21AB27B68A3F850207B68A5
:1057F00003F10C007B68B3F950300022194627F002
:105800008FFA00BF7B6858687B685B681B687C33D5
:105810001B687A683C32114698470837BD4680BD00
:10582000D7CE002480B582B000AF78600B4B1B78D8
:10583000002B0ED07B685B68002B0AD07B68586811
:105840007B685B681B6864331B687A680C3211469E
:10585000984700BF0837BD4680BD00BFD7CE0024A3
:1058600080B588B000AF78601A4B1B78002B2DD024
:105870007B681846FEF732FD174A07F1180392E8D5
:10588000030083E8030007F1080007F118030CCBBD
:105890007968FFF7A5FE7B685A687B685B681B68C0
:1058A0007C331B6807F10801104698477B685868ED
:1058B0007B685B681B6860331B687A680C32114632
:1058C000984707F108031846FFF74EFD00BF203741
:1058D000BD4680BDD7CE002448CC030880B582B039
:1058E00000AF786039603B681B6854331B68064A18
:1058F0001288524292B211B200223868984700BF13
:1059000000BF0837BD4680BDCCCE002480B582B034
:1059100000AF786039607B685B687A68D268521043
:1059200098187B68DB6803F00103002B02D17B68C9
:105930009B680AE07B685B687A68D26852101344FF
:105940001B687A68926813441B683968984700BFDF
:105950000837BD4680BD80B483B000AF78607B68F7
:105960005B68002B10D07B689B68002B07D17B689D
:10597000DB6803F00103002B01D1012300E00023C9
:10598000012B01D0012300E0002318460C37BD464F
:105990005DF8047B7047000080B582B000AF78608E
:1059A000404B1B7883F00103DBB2002B03D07B68F4
:1059B00001221A7273E07B681846FEF77BFC7B6855
:1059C00093F84D300133DAB27B6883F84D207B6861
:1059D00093F84D207B6893F84C309A422FD87B681F
:1059E00093F84D3098B27B68B3F94E207B6893F8FA
:1059F0004C309BB2002127F027FE03461A467B68F5
:105A0000A3F850207B68B3F950309BB203F0010338
:105A10009BB2002B1BD07B68B3F950309BB27A68E5
:105A2000B2F95020002A01DD012201E04FF6FF7299
:105A300013449BB21AB27B68A3F8502007E07B683E
:105A400001221A727B68002283F84D2027E07B68D0
:105A50000C331846FEF7BBFA034619467B68B3F9C8
:105A600050309AB28BB2D31A9BB21AB27B68A3F8A9
:105A700050207B6803F10C007B68B3F950300022A2
:105A8000194627F04DF900BF7B6858687B685B6852
:105A90001B687C331B687A683C321146984708378C
:105AA000BD4680BDD7CE002480B582B000AF7860FF
:105AB0000B4B1B78002B0ED07B685B68002B0AD049
:105AC0007B6858687B685B681B6864331B687A680E
:105AD0000C321146984700BF0837BD4680BD00BF55
